:020000040800F2
:10000000780600208901000829040008EB03000895
:100010002504000839020008C5050008000000009A
:100020000000000000000000000000004D04000877
:100030003D020008000000002B04000861050008D4
:10004000A3010008A3010008A3010008A301000800
:10005000A3010008A3010008A3010008A3010008F0
:10006000A3010008A3010008A3010008A3010008E0
:10007000A3010008A3010008A3010008A3010008D0
:10008000A3010008A3010008A3010008A3010008C0
:10009000A3010008A3010008A3010008A3010008B0
:1000A000A3010008A3010008A3010008A3010008A0
:1000B000A3010008A3010008A3010008A301000890
:1000C000A3010008A3010008A3010008A301000880
:1000D000A3010008A3010008A3010008A301000870
:1000E000A3010008A3010008A301000800F002F822
:1000F00000F03AF80AA090E8000C82448344AAF188
:100100000107DA4501D100F02FF8AFF2090EBAE885
:100110000F0013F0010F18BFFB1A43F0010318473B
:10012000E404000004050000103A24BF78C878C138
:10013000FAD8520724BF30C830C144BF04680C60ED
:10014000704700000023002400250026103A28BF35
:1001500078C1FBD8520728BF30C148BF0B60704739
:100160001FB51FBD10B510BD00F033F81146FFF7E5
:10017000F7FF00F02DFA00F051F803B4FFF7F2FF9B
:1001800003BC00F021FA00000948804709480047F5
:10019000FEE7FEE7FEE7FEE7FEE7FEE7FEE7FEE737
:1001A000FEE7FEE704480549054A064B7047000094
:1001B00065050008ED0000087800002078060020A2
:1001C000780200207802002070477047704770471F
:1001D0007047754600F02CF8AE4605006946534658
:1001E00020F00700854618B020B5FFF7DBFFBDE81B
:1001F00020404FF000064FF000074FF000084FF08E
:10020000000B21F00701AC46ACE8C009ACE8C0091E
:10021000ACE8C009ACE8C0098D46704710B504468B
:10022000AFF300802046BDE81040FFF7A6BF0000F6
:10023000004870471800002000BFFEE7704700002C
:1002400010B56FF0040000F077F90A4800680A4919
:10025000B0FBF1F0094908700846007800EB400156
:10026000C1EBC0104FF6FF7101EAC00004490880DD
:1002700010BD00000000002000127A0014000020D1
:1002800016000020014600224FF0E0231A610E4ABA
:1002900012884A435A6100229A611A46126942F052
:1002A00001021A6100BF4FF0E022106900F0010264
:1002B0001AB100F48032002AF5D000224FF0E0237A
:1002C0001A619A6170470000160000202DE9F04184
:1002D000024600250026002000230024002791F874
:1002E00003C00CF00F0591F803C00CF0100CBCF12A
:1002F000000F03D091F802C04CEA050591F800C048
:10030000BCF1000F31D0146800202BE04FF0010C3D
:100310000CFA00F3B1F800C00CEA03069E4220D1AB
:1003200083004FF00F0C0CFA03F7BC4305FA03FCF3
:100330004CEA040491F803C0BCF1280F06D14FF039
:10034000010C0CFA00FCC2F814C00AE091F803C0DA
:10035000BCF1480F05D14FF0010C0CFA00FCC2F8BB
:1003600010C0401C0828D1D31460B1F800C0BCF103
:10037000FF0F34DD546800202EE000F1080C4FF030
:10038000010808FA0CF3B1F800C00CEA03069E421B
:1003900021D183004FF00F0C0CFA03F7BC4305FA90
:1003A00003FC4CEA040491F803C0BCF1280F05D10A
:1003B00000F1080C08FA0CF8C2F8148091F803C098
:1003C000BCF1480F07D100F1080C4FF0010808FA02
:1003D0000CF8C2F81080401C0828CED35460BDE849
:1003E000F081416170470161704700BFFEE7000086
:1003F00008B50121082000F019F810208DF803003D
:100400000002ADF8000003208DF8020069460448A0
:10041000FFF75CFF4FF480510148FFF7E4FF08BD90
:10042000000C014000BFFEE77047704729B1064A43
:1004300092690243044B9A6104E0034A9269824341
:10044000014B9A617047000000100240704710B5E0
:1004500000F002F810BD00000CB5002001900090E3
:100460003348006840F480303149086000BF3048AC
:10047000006800F4003000900198401C0190009842
:1004800018B90198B0F5A06FF1D12948006800F4BF
:10049000003010B10120009001E000200090009891
:1004A000012843D12348006840F01000214908602A
:1004B0000846006820F0030008600846006840F025
:1004C000020008601A4840681949486008464068B8
:1004D00048600846406840F48060486008464068CC
:1004E00020F47C1048600846406840F4E8104860FA
:1004F0000846006840F08070086000BF0C48006843
:1005000000F000700028F9D00948406820F003008E
:10051000074948600846406840F00200486000BF54
:100520000348406800F00C000828F9D10CBD000019
:100530000010024000200240042808D14FF0E021C2
:10054000096941F004014FF0E022116107E04FF02A
:10055000E021096921F004014FF0E02211617047A8
:100560007047000010B51348006840F001001149C1
:10057000086008464068104908400E49486008462F
:1005800000680E4908400B4908600846006820F4DE
:10059000802008600846406820F4FE0048604FF460
:1005A0001F008860FFF753FF4FF0006004490860A8
:1005B00010BD0000001002400000FFF8FFFFF6FE33
:1005C00008ED00E000BFFEE7014600BF70470000F5
:1005D000FFF70EFFFFF734FE11E04FF4805108489B
:1005E000FFF701FF4FF4FA70FFF74CFE4FF4805114
:1005F0000348FFF7F6FE4FF4FA70FFF743FEECE70F
:10060000000C014024060008000000201800000033
:10061000280100083C0600081800002060060000C1
:100620004401000800A24A0400000000000000008D
:0C06300001020304060708090000000096
:04000005080000ED02
:00000001FF
