:020000040800F2
:100000003804002001010008C503000809030008A6
:10001000C103000849010008C907000800000000EA
:10002000000000000000000000000000BD04000807
:100030004D01000800000000C7030008D1050008BA
:100040001B0100081B0100081B0100081B01000820
:100050001B0100081B0100081B0100081B01000810
:100060001B0100081B0100081B0100081B01000800
:100070001B0100081B0100081B0100081B010008F0
:100080001B0100081B0100081B0100081B010008E0
:100090001B0100081B0100081B0100081B010008D0
:1000A0001B0100081B0100081B0100081B010008C0
:1000B0001B0100081B0100081B0100081B010008B0
:1000C0001B0100081B0100081B0100081B010008A0
:1000D0001B0100081B0100081B0100081B01000890
:1000E0001B0100081B0100081B010008DFF80CD0F1
:1000F00000F018F8004800474108000838040020C4
:100100000648804706480047FEE7FEE7FEE7FEE7B1
:10011000FEE7FEE7FEE7FEE7FEE7FEE7D50500089F
:10012000ED000008064C074D06E0E06840F00103D2
:1001300094E8070098471034AC42F6D3FFF7DAFF93
:100140009C080008BC08000800BFFEE770470000DC
:1001500010B56FF0040000F027FA0A4800680A4959
:10016000B0FBF1F0094908700846007800EB400147
:10017000C1EBC0104FF6FF7101EAC00004490880CE
:1001800010BD00000000002000127A0028000020AE
:100190002A000020014600224FF0E0231A610E4A97
:1001A00012884A435A6100229A611A46126942F043
:1001B00001021A6100BF4FF0E022106900F0010255
:1001C0001AB100F48032002AF5D000224FF0E0236B
:1001D0001A619A61704700002A0000202DE9F04161
:1001E000024600250026002000230024002791F865
:1001F00003C00CF00F0591F803C00CF0100CBCF11B
:10020000000F03D091F802C04CEA050591F800C038
:10021000BCF1000F31D0146800202BE04FF0010C2E
:100220000CFA00F3B1F800C00CEA03069E4220D19C
:1002300083004FF00F0C0CFA03F7BC4305FA03FCE4
:100240004CEA040491F803C0BCF1280F06D14FF02A
:10025000010C0CFA00FCC2F814C00AE091F803C0CB
:10026000BCF1480F05D14FF0010C0CFA00FCC2F8AC
:1002700010C0401C0828D1D31460B1F800C0BCF1F4
:10028000FF0F34DD546800202EE000F1080C4FF021
:10029000010808FA0CF3B1F800C00CEA03069E420C
:1002A00021D183004FF00F0C0CFA03F7BC4305FA81
:1002B00003FC4CEA040491F803C0BCF1280F05D1FB
:1002C00000F1080C08FA0CF8C2F8148091F803C089
:1002D000BCF1480F07D100F1080C4FF0010808FAF3
:1002E0000CF8C2F81080401C0828CED35460BDE83A
:1002F000F0810246002093680B400BB1012000E022
:10030000002070470161704700BFFEE710B504464A
:1003100014B10120104908700F48007888B10121FC
:100320000E48FFF7E6FF60B90A20FFF733FF002011
:100330000949087001210948FFF7DBFF48B901208E
:1003400010BD01210548FFF7D4FF012801D1024962
:1003500008700020F4E700002C0000200008014095
:1003600008B50121042000F02FF848208DF8030083
:100370000120ADF8000003208DF802006946024814
:10038000FFF72CFF08BD00000008014008B501215F
:10039000102000F019F810208DF803004002ADF88D
:1003A000000003208DF8020069460448FFF716FF9D
:1003B0004FF400510148FFF7A5FF08BD00100140B0
:1003C00000BFFEE77047704729B1064A92690243B1
:1003D000044B9A6104E0034A92698243014B9A619B
:1003E000704700000010024030B5002100220024B8
:1003F00000232D4D6D6805F00C0121B1042905D0B5
:10040000082923D105E0294D056022E0274D05602C
:100410001FE0254D6D6805F47012234D6D6805F4DD
:100420008034022505EB92421CB9214D55430560ED
:100430000BE01D4D6D6805F400351DB11C4D554395
:10044000056002E0194D5543056002E0174D056057
:1004500000BF00BF144D6D6805F0F0010909154D8E
:100460006B5C0568DD4045600F4D6D6805F4E0612B
:10047000090A104D6B5C4568DD4085600A4D6D686A
:1004800005F46051C90A0B4D6B5C4568DD40C560E1
:10049000054D6D6805F44041890B074D6B5CC568DF
:1004A000B5FBF3F5056130BD0010024000127A0083
:1004B00000093D001400002024000020704710B502
:1004C00000F002F810BD00000CB500200190009073
:1004D0003348006840F480303149086000BF30483C
:1004E000006800F4003000900198401C01900098D2
:1004F00018B90198B0F5A06FF1D12948006800F44F
:10050000003010B10120009001E000200090009820
:10051000012843D12348006840F0100021490860B9
:100520000846006820F0030008600846006840F0B4
:10053000020008601A484068194948600846406847
:1005400048600846406840F480604860084640685B
:1005500020F47C1048600846406840F4E810486089
:100560000846006840F08070086000BF0C480068D2
:1005700000F000700028F9D00948406820F003001E
:10058000074948600846406840F00200486000BFE4
:100590000348406800F00C000828F9D10CBD0000A9
:1005A0000010024000200240042808D14FF0E02152
:1005B000096941F004014FF0E022116107E04FF0BA
:1005C000E021096921F004014FF0E0221161704738
:1005D0007047000010B51348006840F00100114951
:1005E000086008464068104908400E4948600846BF
:1005F00000680E4908400B4908600846006820F46E
:10060000802008600846406820F4FE0048604FF4EF
:100610001F008860FFF753FF4FF000600449086037
:1006200010BD0000001002400000FFF8FFFFF6FEC2
:1006300008ED00E021B1828942F40052828104E099
:1006400082894DF6FF731A4082817047024600206E
:10065000B1F5007F00D100BF13880B400BB1012022
:1006600000E00020704700002DE9F04786B0054605
:100670000E460024A24600BFA1460027B08900B163
:1006800000BF2F462C8A4CF6FF700440F0880443CC
:100690002C82AC894EF6F3100440B08831890843AF
:1006A000718908430443AC81AC8A4FF6FF40044093
:1006B000B0890443AC8201A8FFF796FE1F48874229
:1006C00002D1DDF810A001E0DDF80CA0A88900F44B
:1006D000004040B10AEBCA0000EB0A103168490043
:1006E000B0FBF1F807E00AEBCA0000EB0A10316832
:1006F0008900B0FBF1F86420B8FBF0F00401200998
:10070000642101FB1089A88900F4004040B1322027
:1007100000EBC900B0FBF1F000F00700044308E073
:10072000322000EB09106421B0FBF1F000F00F0063
:1007300004432C8106B0BDE8F0870000003801407A
:10074000C1F308028280704710B586B004460121CB
:1007500044F20400FFF738FE4FF40070ADF81400C7
:1007600018208DF8170003208DF8160005A91448ED
:10077000FFF734FD4FF48060ADF8140004208DF8CD
:10078000170003208DF8160005A90D48FFF726FD78
:100790000C20ADF80E000020ADF80C000194ADF86F
:1007A0000A00ADF80800ADF8100001A90548FFF7F0
:1007B0005BFF01210348FFF73DFF06B010BD0000BD
:1007C000000801400038014000BFFEE7014A02492D
:1007D00000F013B81D0800083000002002E008C82F
:1007E000121F08C1002AFAD170477047002001E0AB
:1007F00001C1121F002AFBD170472DE9F0411646B6
:100800000F460446002503E03946B047641C6D1CC2
:1008100020780028F8D12846BDE8F08170B504465C
:100820000D46E1B20548FFF78BFF00BF802103486A
:10083000FFF70CFF0028F9D0204670BD00380140BA
:10084000FFF7A4FDFFF784FCFFF78AFD4FF4E130CA
:10085000FFF77AFF00200C49086014E00020FFF742
:1008600055FD04465CB10848006808B9012000E065
:1008700000200549086005A0FFF7A8FF03E04FF43A
:10088000FA70FFF787FCE9E7B401224277656C63F1
:100890006F6D6520746F20796F750000BC080008CB
:1008A0000000002034000000DC070008F008000809
:1008B0003400002004040000EC07000800A24A04F1
:1008C0000000000000000000010203040607080900
:1008D00000000000010203040102030406070809E6
:1008E00002040608000000000100000000000000F3
:04000005080000ED02
:00000001FF
